{
  "abi": [
    {
      "inputs": [],
      "stateMutability": "nonpayable",
      "type": "constructor"
    },
    {
      "anonymous": false,
      "inputs": [
        {
          "indexed": true,
          "internalType": "address",
          "name": "from",
          "type": "address"
        },
        {
          "indexed": true,
          "internalType": "address",
          "name": "option",
          "type": "address"
        },
        {
          "indexed": false,
          "internalType": "uint256",
          "name": "quantityUniTokens",
          "type": "uint256"
        }
      ],
      "name": "AddedLiquidity",
      "type": "event"
    },
    {
      "anonymous": false,
      "inputs": [
        {
          "indexed": true,
          "internalType": "address",
          "name": "from",
          "type": "address"
        },
        {
          "indexed": true,
          "internalType": "address",
          "name": "market",
          "type": "address"
        }
      ],
      "name": "DeployedUniswapMarket",
      "type": "event"
    },
    {
      "anonymous": false,
      "inputs": [
        {
          "indexed": true,
          "internalType": "address",
          "name": "previousOwner",
          "type": "address"
        },
        {
          "indexed": true,
          "internalType": "address",
          "name": "newOwner",
          "type": "address"
        }
      ],
      "name": "OwnershipTransferred",
      "type": "event"
    },
    {
      "anonymous": false,
      "inputs": [
        {
          "indexed": true,
          "internalType": "address",
          "name": "from",
          "type": "address"
        },
        {
          "indexed": true,
          "internalType": "address",
          "name": "optionMarketFrom",
          "type": "address"
        },
        {
          "indexed": true,
          "internalType": "address",
          "name": "optionMarketTo",
          "type": "address"
        },
        {
          "indexed": false,
          "internalType": "uint256",
          "name": "quantity",
          "type": "uint256"
        }
      ],
      "name": "RolledOptionLiquidity",
      "type": "event"
    },
    {
      "anonymous": false,
      "inputs": [
        {
          "indexed": true,
          "internalType": "address",
          "name": "from",
          "type": "address"
        },
        {
          "indexed": true,
          "internalType": "address",
          "name": "optionFrom",
          "type": "address"
        },
        {
          "indexed": true,
          "internalType": "address",
          "name": "optionTo",
          "type": "address"
        },
        {
          "indexed": false,
          "internalType": "uint256",
          "name": "quantity",
          "type": "uint256"
        }
      ],
      "name": "RolledOptions",
      "type": "event"
    },
    {
      "anonymous": false,
      "inputs": [
        {
          "indexed": true,
          "internalType": "address",
          "name": "from",
          "type": "address"
        },
        {
          "indexed": true,
          "internalType": "address",
          "name": "to",
          "type": "address"
        },
        {
          "indexed": true,
          "internalType": "address",
          "name": "option",
          "type": "address"
        },
        {
          "indexed": false,
          "internalType": "uint256",
          "name": "sellQuantity",
          "type": "uint256"
        }
      ],
      "name": "UniswapTraderSell",
      "type": "event"
    },
    {
      "anonymous": false,
      "inputs": [
        {
          "indexed": true,
          "internalType": "address",
          "name": "from",
          "type": "address"
        },
        {
          "indexed": true,
          "internalType": "address",
          "name": "newTrader",
          "type": "address"
        },
        {
          "indexed": true,
          "internalType": "address",
          "name": "newRegistry",
          "type": "address"
        },
        {
          "indexed": false,
          "internalType": "bool",
          "name": "isActivelyTraded",
          "type": "bool"
        }
      ],
      "name": "UpdatedPrimitiveAddresses",
      "type": "event"
    },
    {
      "anonymous": false,
      "inputs": [
        {
          "indexed": true,
          "internalType": "address",
          "name": "from",
          "type": "address"
        },
        {
          "indexed": true,
          "internalType": "address",
          "name": "newQuoteToken",
          "type": "address"
        }
      ],
      "name": "UpdatedQuoteToken",
      "type": "event"
    },
    {
      "anonymous": false,
      "inputs": [
        {
          "indexed": true,
          "internalType": "address",
          "name": "from",
          "type": "address"
        },
        {
          "indexed": true,
          "internalType": "address",
          "name": "newRouter",
          "type": "address"
        },
        {
          "indexed": true,
          "internalType": "address",
          "name": "newFactory",
          "type": "address"
        },
        {
          "indexed": false,
          "internalType": "bool",
          "name": "isActivelyTraded",
          "type": "bool"
        }
      ],
      "name": "UpdatedUniswapAddresses",
      "type": "event"
    },
    {
      "inputs": [
        {
          "internalType": "address",
          "name": "optionAddress",
          "type": "address"
        },
        {
          "internalType": "uint256",
          "name": "quantityOptions",
          "type": "uint256"
        },
        {
          "internalType": "uint256",
          "name": "quantityQuoteTokens",
          "type": "uint256"
        },
        {
          "internalType": "uint256",
          "name": "minQuantityOptions",
          "type": "uint256"
        },
        {
          "internalType": "uint256",
          "name": "minQuantityQuoteTokens",
          "type": "uint256"
        },
        {
          "internalType": "address",
          "name": "to",
          "type": "address"
        }
      ],
      "name": "addLiquidityWithOptions",
      "outputs": [
        {
          "internalType": "bool",
          "name": "",
          "type": "bool"
        }
      ],
      "stateMutability": "nonpayable",
      "type": "function"
    },
    {
      "inputs": [
        {
          "internalType": "address",
          "name": "optionAddress",
          "type": "address"
        },
        {
          "internalType": "uint256",
          "name": "quantityOptions",
          "type": "uint256"
        },
        {
          "internalType": "uint256",
          "name": "quantityQuoteTokens",
          "type": "uint256"
        },
        {
          "internalType": "uint256",
          "name": "minQuantityOptions",
          "type": "uint256"
        },
        {
          "internalType": "uint256",
          "name": "minQuantityQuoteTokens",
          "type": "uint256"
        },
        {
          "internalType": "address",
          "name": "to",
          "type": "address"
        }
      ],
      "name": "addLiquidityWithUnderlying",
      "outputs": [
        {
          "internalType": "bool",
          "name": "",
          "type": "bool"
        }
      ],
      "stateMutability": "nonpayable",
      "type": "function"
    },
    {
      "inputs": [
        {
          "internalType": "address",
          "name": "optionAddress",
          "type": "address"
        }
      ],
      "name": "deployUniswapMarket",
      "outputs": [
        {
          "internalType": "address",
          "name": "",
          "type": "address"
        }
      ],
      "stateMutability": "nonpayable",
      "type": "function"
    },
    {
      "inputs": [],
      "name": "getMaxDeadline",
      "outputs": [
        {
          "internalType": "uint256",
          "name": "deadline",
          "type": "uint256"
        }
      ],
      "stateMutability": "view",
      "type": "function"
    },
    {
      "inputs": [],
      "name": "getPrimitiveProtocolAddresses",
      "outputs": [
        {
          "internalType": "address",
          "name": "trader",
          "type": "address"
        },
        {
          "internalType": "address",
          "name": "registry",
          "type": "address"
        },
        {
          "internalType": "bool",
          "name": "isActivelyTrading",
          "type": "bool"
        }
      ],
      "stateMutability": "view",
      "type": "function"
    },
    {
      "inputs": [
        {
          "internalType": "address",
          "name": "optionAddress",
          "type": "address"
        }
      ],
      "name": "getUniswapMarketForOption",
      "outputs": [
        {
          "internalType": "address",
          "name": "",
          "type": "address"
        }
      ],
      "stateMutability": "view",
      "type": "function"
    },
    {
      "inputs": [
        {
          "internalType": "address",
          "name": "underlyingToken",
          "type": "address"
        },
        {
          "internalType": "address",
          "name": "strikeToken",
          "type": "address"
        },
        {
          "internalType": "uint256",
          "name": "base",
          "type": "uint256"
        },
        {
          "internalType": "uint256",
          "name": "quote",
          "type": "uint256"
        },
        {
          "internalType": "uint256",
          "name": "expiry",
          "type": "uint256"
        }
      ],
      "name": "getUniswapMarketForSeries",
      "outputs": [
        {
          "internalType": "address",
          "name": "",
          "type": "address"
        }
      ],
      "stateMutability": "view",
      "type": "function"
    },
    {
      "inputs": [],
      "name": "getUniswapProtocolAddresses",
      "outputs": [
        {
          "internalType": "address",
          "name": "router",
          "type": "address"
        },
        {
          "internalType": "address",
          "name": "factory",
          "type": "address"
        },
        {
          "internalType": "bool",
          "name": "isActivelyTrading",
          "type": "bool"
        }
      ],
      "stateMutability": "view",
      "type": "function"
    },
    {
      "inputs": [
        {
          "internalType": "contract IOption",
          "name": "option",
          "type": "address"
        },
        {
          "internalType": "uint256",
          "name": "sellQuantity",
          "type": "uint256"
        },
        {
          "internalType": "uint256",
          "name": "minQuote",
          "type": "uint256"
        }
      ],
      "name": "mintAndMarketSell",
      "outputs": [
        {
          "internalType": "bool",
          "name": "",
          "type": "bool"
        }
      ],
      "stateMutability": "nonpayable",
      "type": "function"
    },
    {
      "inputs": [],
      "name": "owner",
      "outputs": [
        {
          "internalType": "address",
          "name": "",
          "type": "address"
        }
      ],
      "stateMutability": "view",
      "type": "function"
    },
    {
      "inputs": [],
      "name": "quoteToken",
      "outputs": [
        {
          "internalType": "address",
          "name": "",
          "type": "address"
        }
      ],
      "stateMutability": "view",
      "type": "function"
    },
    {
      "inputs": [],
      "name": "renounceOwnership",
      "outputs": [],
      "stateMutability": "nonpayable",
      "type": "function"
    },
    {
      "inputs": [
        {
          "internalType": "address",
          "name": "rollFromOption",
          "type": "address"
        },
        {
          "internalType": "address",
          "name": "rollToOption",
          "type": "address"
        },
        {
          "internalType": "address",
          "name": "receiver",
          "type": "address"
        },
        {
          "internalType": "uint256",
          "name": "rollQuantity",
          "type": "uint256"
        }
      ],
      "name": "rollOptionForExpiry",
      "outputs": [
        {
          "internalType": "bool",
          "name": "",
          "type": "bool"
        }
      ],
      "stateMutability": "nonpayable",
      "type": "function"
    },
    {
      "inputs": [
        {
          "internalType": "address",
          "name": "rollFromOption",
          "type": "address"
        },
        {
          "internalType": "address",
          "name": "rollToOption",
          "type": "address"
        },
        {
          "internalType": "address",
          "name": "receiver",
          "type": "address"
        },
        {
          "internalType": "uint256",
          "name": "liquidityQuantityFrom",
          "type": "uint256"
        }
      ],
      "name": "rollOptionLiquidityForExpiry",
      "outputs": [
        {
          "internalType": "bool",
          "name": "",
          "type": "bool"
        }
      ],
      "stateMutability": "nonpayable",
      "type": "function"
    },
    {
      "inputs": [
        {
          "internalType": "address",
          "name": "registry",
          "type": "address"
        },
        {
          "internalType": "address",
          "name": "trader",
          "type": "address"
        },
        {
          "internalType": "bool",
          "name": "isActivelyTrading",
          "type": "bool"
        }
      ],
      "name": "setPrimitiveProtocol",
      "outputs": [],
      "stateMutability": "nonpayable",
      "type": "function"
    },
    {
      "inputs": [
        {
          "internalType": "address",
          "name": "_quoteToken",
          "type": "address"
        }
      ],
      "name": "setQuoteToken",
      "outputs": [],
      "stateMutability": "nonpayable",
      "type": "function"
    },
    {
      "inputs": [
        {
          "internalType": "address",
          "name": "router",
          "type": "address"
        },
        {
          "internalType": "address",
          "name": "factory",
          "type": "address"
        },
        {
          "internalType": "bool",
          "name": "isActivelyTrading",
          "type": "bool"
        }
      ],
      "name": "setUniswapProtocol",
      "outputs": [],
      "stateMutability": "nonpayable",
      "type": "function"
    },
    {
      "inputs": [
        {
          "internalType": "address",
          "name": "newOwner",
          "type": "address"
        }
      ],
      "name": "transferOwnership",
      "outputs": [],
      "stateMutability": "nonpayable",
      "type": "function"
    }
  ],
  "address": "0xD6C850aeBFDC46D7F4c207e445cC0d6B0919BDBe",
  "args": [],
  "bytecode": "0x60806040523480156200001157600080fd5b50600062000024620000c860201b60201c565b9050806000806101000a81548173ffffffffffffffffffffffffffffffffffffffff021916908373ffffffffffffffffffffffffffffffffffffffff1602179055508073ffffffffffffffffffffffffffffffffffffffff16600073ffffffffffffffffffffffffffffffffffffffff167f8be0079c531659141344cd1fd0a4f28419497f9722a3daafe3b4186f6b6457e060405160405180910390a350620000d0565b600033905090565b61434e80620000e06000396000f3fe608060405234801561001057600080fd5b50600436106101165760003560e01c806370080cd0116100a2578063c017783c11610071578063c017783c146106b5578063c3c97e9e1461073d578063d32f1830146107c5578063d8627fb714610869578063f2fde38b146108d957610116565b806370080cd014610517578063715018a6146105bb5780638da5cb5b146105c55780639a79394c1461060f57610116565b8063670f3e20116100e9578063670f3e20146102db5780636af255d71461034b5780636bd64c3a146103cf5780636c6cbee1146103ed5780636d4542bd1461049357610116565b80631cfb886d1461011b578063217a4b701461015f5780634316f876146101a957806351b8498f14610219575b600080fd5b61015d6004803603602081101561013157600080fd5b81019080803573ffffffffffffffffffffffffffffffffffffffff16906020019092919050505061091d565b005b610167610a84565b604051808273ffffffffffffffffffffffffffffffffffffffff1673ffffffffffffffffffffffffffffffffffffffff16815260200191505060405180910390f35b610217600480360360608110156101bf57600080fd5b81019080803573ffffffffffffffffffffffffffffffffffffffff169060200190929190803573ffffffffffffffffffffffffffffffffffffffff169060200190929190803515159060200190929190505050610aaa565b005b610299600480360360a081101561022f57600080fd5b81019080803573ffffffffffffffffffffffffffffffffffffffff169060200190929190803573ffffffffffffffffffffffffffffffffffffffff169060200190929190803590602001909291908035906020019092919080359060200190929190505050610ca1565b604051808273ffffffffffffffffffffffffffffffffffffffff1673ffffffffffffffffffffffffffffffffffffffff16815260200191505060405180910390f35b610349600480360360608110156102f157600080fd5b81019080803573ffffffffffffffffffffffffffffffffffffffff169060200190929190803573ffffffffffffffffffffffffffffffffffffffff169060200190929190803515159060200190929190505050610e87565b005b61038d6004803603602081101561036157600080fd5b81019080803573ffffffffffffffffffffffffffffffffffffffff16906020019092919050505061107e565b604051808273ffffffffffffffffffffffffffffffffffffffff1673ffffffffffffffffffffffffffffffffffffffff16815260200191505060405180910390f35b6103d761121a565b6040518082815260200191505060405180910390f35b6104796004803603608081101561040357600080fd5b81019080803573ffffffffffffffffffffffffffffffffffffffff169060200190929190803573ffffffffffffffffffffffffffffffffffffffff169060200190929190803573ffffffffffffffffffffffffffffffffffffffff16906020019092919080359060200190929190505050611226565b604051808215151515815260200191505060405180910390f35b6104d5600480360360208110156104a957600080fd5b81019080803573ffffffffffffffffffffffffffffffffffffffff1690602001909291905050506113eb565b604051808273ffffffffffffffffffffffffffffffffffffffff1673ffffffffffffffffffffffffffffffffffffffff16815260200191505060405180910390f35b6105a1600480360360c081101561052d57600080fd5b81019080803573ffffffffffffffffffffffffffffffffffffffff16906020019092919080359060200190929190803590602001909291908035906020019092919080359060200190929190803573ffffffffffffffffffffffffffffffffffffffff1690602001909291905050506115ce565b604051808215151515815260200191505060405180910390f35b6105c3611a68565b005b6105cd611bf0565b604051808273ffffffffffffffffffffffffffffffffffffffff1673ffffffffffffffffffffffffffffffffffffffff16815260200191505060405180910390f35b61069b6004803603608081101561062557600080fd5b81019080803573ffffffffffffffffffffffffffffffffffffffff169060200190929190803573ffffffffffffffffffffffffffffffffffffffff169060200190929190803573ffffffffffffffffffffffffffffffffffffffff16906020019092919080359060200190929190505050611c19565b604051808215151515815260200191505060405180910390f35b6106bd6124eb565b604051808473ffffffffffffffffffffffffffffffffffffffff1673ffffffffffffffffffffffffffffffffffffffff1681526020018373ffffffffffffffffffffffffffffffffffffffff1673ffffffffffffffffffffffffffffffffffffffff16815260200182151515158152602001935050505060405180910390f35b6107456125e9565b604051808473ffffffffffffffffffffffffffffffffffffffff1673ffffffffffffffffffffffffffffffffffffffff1681526020018373ffffffffffffffffffffffffffffffffffffffff1673ffffffffffffffffffffffffffffffffffffffff16815260200182151515158152602001935050505060405180910390f35b61084f600480360360c08110156107db57600080fd5b81019080803573ffffffffffffffffffffffffffffffffffffffff16906020019092919080359060200190929190803590602001909291908035906020019092919080359060200190929190803573ffffffffffffffffffffffffffffffffffffffff1690602001909291905050506126e7565b604051808215151515815260200191505060405180910390f35b6108bf6004803603606081101561087f57600080fd5b81019080803573ffffffffffffffffffffffffffffffffffffffff1690602001909291908035906020019092919080359060200190929190505050612c13565b604051808215151515815260200191505060405180910390f35b61091b600480360360208110156108ef57600080fd5b81019080803573ffffffffffffffffffffffffffffffffffffffff169060200190929190505050612cf0565b005b610925612efd565b73ffffffffffffffffffffffffffffffffffffffff166000809054906101000a900473ffffffffffffffffffffffffffffffffffffffff1673ffffffffffffffffffffffffffffffffffffffff16146109e6576040517f08c379a00000000000000000000000000000000000000000000000000000000081526004018080602001828103825260208152602001807f4f776e61626c653a2063616c6c6572206973206e6f7420746865206f776e657281525060200191505060405180910390fd5b80600560006101000a81548173ffffffffffffffffffffffffffffffffffffffff021916908373ffffffffffffffffffffffffffffffffffffffff1602179055508073ffffffffffffffffffffffffffffffffffffffff163373ffffffffffffffffffffffffffffffffffffffff167f3f7a60b945c1aed32875c6b9264e816ef33c2612c363413700437ceb940465f660405160405180910390a350565b600560009054906101000a900473ffffffffffffffffffffffffffffffffffffffff1681565b610ab2612efd565b73ffffffffffffffffffffffffffffffffffffffff166000809054906101000a900473ffffffffffffffffffffffffffffffffffffffff1673ffffffffffffffffffffffffffffffffffffffff1614610b73576040517f08c379a00000000000000000000000000000000000000000000000000000000081526004018080602001828103825260208152602001807f4f776e61626c653a2063616c6c6572206973206e6f7420746865206f776e657281525060200191505060405180910390fd5b600060019050838160000160006101000a81548173ffffffffffffffffffffffffffffffffffffffff021916908373ffffffffffffffffffffffffffffffffffffffff160217905550828160010160006101000a81548173ffffffffffffffffffffffffffffffffffffffff021916908373ffffffffffffffffffffffffffffffffffffffff160217905550818160010160146101000a81548160ff0219169083151502179055508273ffffffffffffffffffffffffffffffffffffffff168473ffffffffffffffffffffffffffffffffffffffff163373ffffffffffffffffffffffffffffffffffffffff167f9617782dab99d7426e8c493ce57d7d16c2d40c12f6b7e66ebe5ebc8ab4bb148285604051808215151515815260200191505060405180910390a450505050565b600080600360010160009054906101000a900473ffffffffffffffffffffffffffffffffffffffff1673ffffffffffffffffffffffffffffffffffffffff16631990040788888888886040518663ffffffff1660e01b8152600401808673ffffffffffffffffffffffffffffffffffffffff1673ffffffffffffffffffffffffffffffffffffffff1681526020018573ffffffffffffffffffffffffffffffffffffffff1673ffffffffffffffffffffffffffffffffffffffff1681526020018481526020018381526020018281526020019550505050505060206040518083038186803b158015610d9257600080fd5b505afa158015610da6573d6000803e3d6000fd5b505050506040513d6020811015610dbc57600080fd5b81019080805190602001909291905050509050600073ffffffffffffffffffffffffffffffffffffffff168173ffffffffffffffffffffffffffffffffffffffff161415610e72576040517f08c379a00000000000000000000000000000000000000000000000000000000081526004018080602001828103825260198152602001807f4552525f4f5054494f4e5f444f45535f4e4f545f45584953540000000000000081525060200191505060405180910390fd5b610e7b816113eb565b91505095945050505050565b610e8f612efd565b73ffffffffffffffffffffffffffffffffffffffff166000809054906101000a900473ffffffffffffffffffffffffffffffffffffffff1673ffffffffffffffffffffffffffffffffffffffff1614610f50576040517f08c379a00000000000000000000000000000000000000000000000000000000081526004018080602001828103825260208152602001807f4f776e61626c653a2063616c6c6572206973206e6f7420746865206f776e657281525060200191505060405180910390fd5b600060039050828160000160006101000a81548173ffffffffffffffffffffffffffffffffffffffff021916908373ffffffffffffffffffffffffffffffffffffffff160217905550838160010160006101000a81548173ffffffffffffffffffffffffffffffffffffffff021916908373ffffffffffffffffffffffffffffffffffffffff160217905550818160010160146101000a81548160ff0219169083151502179055508373ffffffffffffffffffffffffffffffffffffffff168373ffffffffffffffffffffffffffffffffffffffff163373ffffffffffffffffffffffffffffffffffffffff167f0984f01d4b1d41e0cd20b0bd37753dedbea6aa60f954acb3227c852ecf54608c85604051808215151515815260200191505060405180910390a450505050565b6000806001800160009054906101000a900473ffffffffffffffffffffffffffffffffffffffff1673ffffffffffffffffffffffffffffffffffffffff1663c9c6539684600560009054906101000a900473ffffffffffffffffffffffffffffffffffffffff166040518363ffffffff1660e01b8152600401808373ffffffffffffffffffffffffffffffffffffffff1673ffffffffffffffffffffffffffffffffffffffff1681526020018273ffffffffffffffffffffffffffffffffffffffff1673ffffffffffffffffffffffffffffffffffffffff16815260200192505050602060405180830381600087803b15801561117a57600080fd5b505af115801561118e573d6000803e3d6000fd5b505050506040513d60208110156111a457600080fd5b810190808051906020019092919050505090508273ffffffffffffffffffffffffffffffffffffffff163373ffffffffffffffffffffffffffffffffffffffff167f983e2cfe4d998bc88adcb0587ec1aa5f65f3d7c50fa75da4255180f5fd065f5660405160405180910390a380915050919050565b60006103844201905090565b600080611234868430612f05565b925050506000600360000160009054906101000a900473ffffffffffffffffffffffffffffffffffffffff1673ffffffffffffffffffffffffffffffffffffffff166320e469d68784886040518463ffffffff1660e01b8152600401808473ffffffffffffffffffffffffffffffffffffffff1673ffffffffffffffffffffffffffffffffffffffff1681526020018381526020018273ffffffffffffffffffffffffffffffffffffffff1673ffffffffffffffffffffffffffffffffffffffff16815260200193505050506040805180830381600087803b15801561131957600080fd5b505af115801561132d573d6000803e3d6000fd5b505050506040513d604081101561134357600080fd5b8101908080519060200190929190805190602001909291905050505090508573ffffffffffffffffffffffffffffffffffffffff168773ffffffffffffffffffffffffffffffffffffffff163373ffffffffffffffffffffffffffffffffffffffff167ff3ba593321fc56277d51dad4f0bef1650d7ec2e08229bebf53d499c96ec044f0846040518082815260200191505060405180910390a4600192505050949350505050565b6000806001800160009054906101000a900473ffffffffffffffffffffffffffffffffffffffff1673ffffffffffffffffffffffffffffffffffffffff1663e6a4390584600560009054906101000a900473ffffffffffffffffffffffffffffffffffffffff166040518363ffffffff1660e01b8152600401808373ffffffffffffffffffffffffffffffffffffffff1673ffffffffffffffffffffffffffffffffffffffff1681526020018273ffffffffffffffffffffffffffffffffffffffff1673ffffffffffffffffffffffffffffffffffffffff1681526020019250505060206040518083038186803b1580156114e557600080fd5b505afa1580156114f9573d6000803e3d6000fd5b505050506040513d602081101561150f57600080fd5b81019080805190602001909291905050509050600073ffffffffffffffffffffffffffffffffffffffff168173ffffffffffffffffffffffffffffffffffffffff1614156115c5576040517f08c379a00000000000000000000000000000000000000000000000000000000081526004018080602001828103825260178152602001807f4552525f504149525f444f45535f4e4f545f455849535400000000000000000081525060200191505060405180910390fd5b80915050919050565b600080600160000160009054906101000a900473ffffffffffffffffffffffffffffffffffffffff1690506000600560009054906101000a900473ffffffffffffffffffffffffffffffffffffffff16905061164d3330898473ffffffffffffffffffffffffffffffffffffffff1661353d909392919063ffffffff16565b61167a33308a8c73ffffffffffffffffffffffffffffffffffffffff1661353d909392919063ffffffff16565b8873ffffffffffffffffffffffffffffffffffffffff1663095ea7b3837fffffffffffffffffffffffffffffffffffffffffffffffffffffffffffffffff6040518363ffffffff1660e01b8152600401808373ffffffffffffffffffffffffffffffffffffffff1673ffffffffffffffffffffffffffffffffffffffff16815260200182815260200192505050602060405180830381600087803b15801561172157600080fd5b505af1158015611735573d6000803e3d6000fd5b505050506040513d602081101561174b57600080fd5b8101908080519060200190929190505050508073ffffffffffffffffffffffffffffffffffffffff1663095ea7b3837fffffffffffffffffffffffffffffffffffffffffffffffffffffffffffffffff6040518363ffffffff1660e01b8152600401808373ffffffffffffffffffffffffffffffffffffffff1673ffffffffffffffffffffffffffffffffffffffff16815260200182815260200192505050602060405180830381600087803b15801561180457600080fd5b505af1158015611818573d6000803e3d6000fd5b505050506040513d602081101561182e57600080fd5b8101908080519060200190929190505050506000600160000160009054906101000a900473ffffffffffffffffffffffffffffffffffffffff1673ffffffffffffffffffffffffffffffffffffffff1663e8e337008b600560009054906101000a900473ffffffffffffffffffffffffffffffffffffffff168c8c8c8c8c6118b461121a565b6040518963ffffffff1660e01b8152600401808973ffffffffffffffffffffffffffffffffffffffff1673ffffffffffffffffffffffffffffffffffffffff1681526020018873ffffffffffffffffffffffffffffffffffffffff1673ffffffffffffffffffffffffffffffffffffffff1681526020018781526020018681526020018581526020018481526020018373ffffffffffffffffffffffffffffffffffffffff1673ffffffffffffffffffffffffffffffffffffffff16815260200182815260200198505050505050505050606060405180830381600087803b15801561199f57600080fd5b505af11580156119b3573d6000803e3d6000fd5b505050506040513d60608110156119c957600080fd5b81019080805190602001909291908051906020019092919080519060200190929190505050925050508973ffffffffffffffffffffffffffffffffffffffff163373ffffffffffffffffffffffffffffffffffffffff167f4af9dc78b2c3a798dc3641145f43c3c0e2c6d0c87e52201d990f413c71fc5548836040518082815260200191505060405180910390a3600193505050509695505050505050565b611a70612efd565b73ffffffffffffffffffffffffffffffffffffffff166000809054906101000a900473ffffffffffffffffffffffffffffffffffffffff1673ffffffffffffffffffffffffffffffffffffffff1614611b31576040517f08c379a00000000000000000000000000000000000000000000000000000000081526004018080602001828103825260208152602001807f4f776e61626c653a2063616c6c6572206973206e6f7420746865206f776e657281525060200191505060405180910390fd5b600073ffffffffffffffffffffffffffffffffffffffff166000809054906101000a900473ffffffffffffffffffffffffffffffffffffffff1673ffffffffffffffffffffffffffffffffffffffff167f8be0079c531659141344cd1fd0a4f28419497f9722a3daafe3b4186f6b6457e060405160405180910390a360008060006101000a81548173ffffffffffffffffffffffffffffffffffffffff021916908373ffffffffffffffffffffffffffffffffffffffff160217905550565b60008060009054906101000a900473ffffffffffffffffffffffffffffffffffffffff16905090565b600080600160000160009054906101000a900473ffffffffffffffffffffffffffffffffffffffff169050611c79333085611c538a6113eb565b73ffffffffffffffffffffffffffffffffffffffff1661353d909392919063ffffffff16565b60008173ffffffffffffffffffffffffffffffffffffffff1663baa2abde88600560009054906101000a900473ffffffffffffffffffffffffffffffffffffffff168760008030611cc861121a565b6040518863ffffffff1660e01b8152600401808873ffffffffffffffffffffffffffffffffffffffff1673ffffffffffffffffffffffffffffffffffffffff1681526020018773ffffffffffffffffffffffffffffffffffffffff1673ffffffffffffffffffffffffffffffffffffffff1681526020018681526020018581526020018481526020018373ffffffffffffffffffffffffffffffffffffffff1673ffffffffffffffffffffffffffffffffffffffff1681526020018281526020019750505050505050506040805180830381600087803b158015611dab57600080fd5b505af1158015611dbf573d6000803e3d6000fd5b505050506040513d6040811015611dd557600080fd5b8101908080519060200190929190805190602001909291905050505090506000611f1a611f0b8973ffffffffffffffffffffffffffffffffffffffff16635001f3b56040518163ffffffff1660e01b815260040160206040518083038186803b158015611e4157600080fd5b505afa158015611e55573d6000803e3d6000fd5b505050506040513d6020811015611e6b57600080fd5b81019080805190602001909291905050508a73ffffffffffffffffffffffffffffffffffffffff1663999b93af6040518163ffffffff1660e01b815260040160206040518083038186803b158015611ec257600080fd5b505afa158015611ed6573d6000803e3d6000fd5b505050506040513d6020811015611eec57600080fd5b810190808051906020019092919050505061362a90919063ffffffff16565b8361367490919063ffffffff16565b9050611fc93330838b73ffffffffffffffffffffffffffffffffffffffff16632f310bad6040518163ffffffff1660e01b815260040160206040518083038186803b158015611f6857600080fd5b505afa158015611f7c573d6000803e3d6000fd5b505050506040513d6020811015611f9257600080fd5b810190808051906020019092919050505073ffffffffffffffffffffffffffffffffffffffff1661353d909392919063ffffffff16565b6000600360000160009054906101000a900473ffffffffffffffffffffffffffffffffffffffff1673ffffffffffffffffffffffffffffffffffffffff1663b8a6bb3b8a85306040518463ffffffff1660e01b8152600401808473ffffffffffffffffffffffffffffffffffffffff1673ffffffffffffffffffffffffffffffffffffffff1681526020018381526020018273ffffffffffffffffffffffffffffffffffffffff1673ffffffffffffffffffffffffffffffffffffffff1681526020019350505050606060405180830381600087803b1580156120ab57600080fd5b505af11580156120bf573d6000803e3d6000fd5b505050506040513d60608110156120d557600080fd5b81019080805190602001909291908051906020019092919080519060200190929190505050925050506000600360000160009054906101000a900473ffffffffffffffffffffffffffffffffffffffff1673ffffffffffffffffffffffffffffffffffffffff166320e469d68a84306040518463ffffffff1660e01b8152600401808473ffffffffffffffffffffffffffffffffffffffff1673ffffffffffffffffffffffffffffffffffffffff1681526020018381526020018273ffffffffffffffffffffffffffffffffffffffff1673ffffffffffffffffffffffffffffffffffffffff16815260200193505050506040805180830381600087803b1580156121df57600080fd5b505af11580156121f3573d6000803e3d6000fd5b505050506040513d604081101561220957600080fd5b8101908080519060200190929190805190602001909291905050509150508473ffffffffffffffffffffffffffffffffffffffff1663e8e337008a600560009054906101000a900473ffffffffffffffffffffffffffffffffffffffff168760008060008f61227661121a565b6040518963ffffffff1660e01b8152600401808973ffffffffffffffffffffffffffffffffffffffff1673ffffffffffffffffffffffffffffffffffffffff1681526020018873ffffffffffffffffffffffffffffffffffffffff1673ffffffffffffffffffffffffffffffffffffffff1681526020018781526020018681526020018581526020018481526020018373ffffffffffffffffffffffffffffffffffffffff1673ffffffffffffffffffffffffffffffffffffffff16815260200182815260200198505050505050505050606060405180830381600087803b15801561236157600080fd5b505af1158015612375573d6000803e3d6000fd5b505050506040513d606081101561238b57600080fd5b8101908080519060200190929190805190602001909291908051906020019092919050505050505061245e33828b73ffffffffffffffffffffffffffffffffffffffff16632f310bad6040518163ffffffff1660e01b815260040160206040518083038186803b1580156123fe57600080fd5b505afa158015612412573d6000803e3d6000fd5b505050506040513d602081101561242857600080fd5b810190808051906020019092919050505073ffffffffffffffffffffffffffffffffffffffff166136fa9092919063ffffffff16565b508773ffffffffffffffffffffffffffffffffffffffff168973ffffffffffffffffffffffffffffffffffffffff163373ffffffffffffffffffffffffffffffffffffffff167f79d79896c25e306b5784cadedcce16307107306aef13c53aeccb242eb8630624866040518082815260200191505060405180910390a46001945050505050949350505050565b60008060006124f8614209565b60016040518060600160405290816000820160009054906101000a900473ffffffffffffffffffffffffffffffffffffffff1673ffffffffffffffffffffffffffffffffffffffff1673ffffffffffffffffffffffffffffffffffffffff1681526020016001820160009054906101000a900473ffffffffffffffffffffffffffffffffffffffff1673ffffffffffffffffffffffffffffffffffffffff1673ffffffffffffffffffffffffffffffffffffffff1681526020016001820160149054906101000a900460ff161515151581525050905080600001518160200151826040015193509350935050909192565b60008060006125f6614258565b60036040518060600160405290816000820160009054906101000a900473ffffffffffffffffffffffffffffffffffffffff1673ffffffffffffffffffffffffffffffffffffffff1673ffffffffffffffffffffffffffffffffffffffff1681526020016001820160009054906101000a900473ffffffffffffffffffffffffffffffffffffffff1673ffffffffffffffffffffffffffffffffffffffff1673ffffffffffffffffffffffffffffffffffffffff1681526020016001820160149054906101000a900460ff161515151581525050905080600001518160200151826040015193509350935050909192565b600080600160000160009054906101000a900473ffffffffffffffffffffffffffffffffffffffff1690506000600560009054906101000a900473ffffffffffffffffffffffffffffffffffffffff1690506127663330898473ffffffffffffffffffffffffffffffffffffffff1661353d909392919063ffffffff16565b6000806127748b8b306137b2565b915091508a73ffffffffffffffffffffffffffffffffffffffff1663095ea7b3857fffffffffffffffffffffffffffffffffffffffffffffffffffffffffffffffff6040518363ffffffff1660e01b8152600401808373ffffffffffffffffffffffffffffffffffffffff1673ffffffffffffffffffffffffffffffffffffffff16815260200182815260200192505050602060405180830381600087803b15801561281f57600080fd5b505af1158015612833573d6000803e3d6000fd5b505050506040513d602081101561284957600080fd5b8101908080519060200190929190505050508273ffffffffffffffffffffffffffffffffffffffff1663095ea7b3857fffffffffffffffffffffffffffffffffffffffffffffffffffffffffffffffff6040518363ffffffff1660e01b8152600401808373ffffffffffffffffffffffffffffffffffffffff1673ffffffffffffffffffffffffffffffffffffffff16815260200182815260200192505050602060405180830381600087803b15801561290257600080fd5b505af1158015612916573d6000803e3d6000fd5b505050506040513d602081101561292c57600080fd5b8101908080519060200190929190505050506000600160000160009054906101000a900473ffffffffffffffffffffffffffffffffffffffff1673ffffffffffffffffffffffffffffffffffffffff1663e8e337008d600560009054906101000a900473ffffffffffffffffffffffffffffffffffffffff16868e8e8e8e6129b261121a565b6040518963ffffffff1660e01b8152600401808973ffffffffffffffffffffffffffffffffffffffff1673ffffffffffffffffffffffffffffffffffffffff1681526020018873ffffffffffffffffffffffffffffffffffffffff1673ffffffffffffffffffffffffffffffffffffffff1681526020018781526020018681526020018581526020018481526020018373ffffffffffffffffffffffffffffffffffffffff1673ffffffffffffffffffffffffffffffffffffffff16815260200182815260200198505050505050505050606060405180830381600087803b158015612a9d57600080fd5b505af1158015612ab1573d6000803e3d6000fd5b505050506040513d6060811015612ac757600080fd5b8101908080519060200190929190805190602001909291908051906020019092919050505092505050612b9b33838e73ffffffffffffffffffffffffffffffffffffffff16632f310bad6040518163ffffffff1660e01b815260040160206040518083038186803b158015612b3b57600080fd5b505afa158015612b4f573d6000803e3d6000fd5b505050506040513d6020811015612b6557600080fd5b810190808051906020019092919050505073ffffffffffffffffffffffffffffffffffffffff166136fa9092919063ffffffff16565b8b73ffffffffffffffffffffffffffffffffffffffff163373ffffffffffffffffffffffffffffffffffffffff167f4af9dc78b2c3a798dc3641145f43c3c0e2c6d0c87e52201d990f413c71fc5548836040518082815260200191505060405180910390a36001955050505050509695505050505050565b6000806000612c238686306137b2565b915091506000612c35338885886139ab565b915050612ce333838973ffffffffffffffffffffffffffffffffffffffff16632f310bad6040518163ffffffff1660e01b815260040160206040518083038186803b158015612c8357600080fd5b505afa158015612c97573d6000803e3d6000fd5b505050506040513d6020811015612cad57600080fd5b810190808051906020019092919050505073ffffffffffffffffffffffffffffffffffffffff166136fa9092919063ffffffff16565b8093505050509392505050565b612cf8612efd565b73ffffffffffffffffffffffffffffffffffffffff166000809054906101000a900473ffffffffffffffffffffffffffffffffffffffff1673ffffffffffffffffffffffffffffffffffffffff1614612db9576040517f08c379a00000000000000000000000000000000000000000000000000000000081526004018080602001828103825260208152602001807f4f776e61626c653a2063616c6c6572206973206e6f7420746865206f776e657281525060200191505060405180910390fd5b600073ffffffffffffffffffffffffffffffffffffffff168173ffffffffffffffffffffffffffffffffffffffff161415612e3f576040517f08c379a00000000000000000000000000000000000000000000000000000000081526004018080602001828103825260268152602001806142a86026913960400191505060405180910390fd5b8073ffffffffffffffffffffffffffffffffffffffff166000809054906101000a900473ffffffffffffffffffffffffffffffffffffffff1673ffffffffffffffffffffffffffffffffffffffff167f8be0079c531659141344cd1fd0a4f28419497f9722a3daafe3b4186f6b6457e060405160405180910390a3806000806101000a81548173ffffffffffffffffffffffffffffffffffffffff021916908373ffffffffffffffffffffffffffffffffffffffff16021790555050565b600033905090565b6000806000808511612f7f576040517f08c379a00000000000000000000000000000000000000000000000000000000081526004018080602001828103825260088152602001807f4552525f5a45524f00000000000000000000000000000000000000000000000081525060200191505060405180910390fd5b848673ffffffffffffffffffffffffffffffffffffffff166370a08231336040518263ffffffff1660e01b8152600401808273ffffffffffffffffffffffffffffffffffffffff1673ffffffffffffffffffffffffffffffffffffffff16815260200191505060206040518083038186803b158015612ffd57600080fd5b505afa158015613011573d6000803e3d6000fd5b505050506040513d602081101561302757600080fd5b810190808051906020019092919050505010156130ac576040517f08c379a000000000000000000000000000000000000000000000000000000000815260040180806020018281038252600f8152602001807f4552525f42414c5f4f5054494f4e53000000000000000000000000000000000081525060200191505060405180910390fd5b6131d18673ffffffffffffffffffffffffffffffffffffffff16635001f3b56040518163ffffffff1660e01b815260040160206040518083038186803b1580156130f557600080fd5b505afa158015613109573d6000803e3d6000fd5b505050506040513d602081101561311f57600080fd5b81019080805190602001909291905050506131c38873ffffffffffffffffffffffffffffffffffffffff1663999b93af6040518163ffffffff1660e01b815260040160206040518083038186803b15801561317957600080fd5b505afa15801561318d573d6000803e3d6000fd5b505050506040513d60208110156131a357600080fd5b81019080805190602001909291905050508861367490919063ffffffff16565b61362a90919063ffffffff16565b9250828673ffffffffffffffffffffffffffffffffffffffff16632f310bad6040518163ffffffff1660e01b815260040160206040518083038186803b15801561321a57600080fd5b505afa15801561322e573d6000803e3d6000fd5b505050506040513d602081101561324457600080fd5b810190808051906020019092919050505073ffffffffffffffffffffffffffffffffffffffff166370a08231336040518263ffffffff1660e01b8152600401808273ffffffffffffffffffffffffffffffffffffffff1673ffffffffffffffffffffffffffffffffffffffff16815260200191505060206040518083038186803b1580156132d157600080fd5b505afa1580156132e5573d6000803e3d6000fd5b505050506040513d60208110156132fb57600080fd5b81019080805190602001909291905050501015613380576040517f08c379a000000000000000000000000000000000000000000000000000000000815260040180806020018281038252600e8152602001807f4552525f42414c5f52454445454d00000000000000000000000000000000000081525060200191505060405180910390fd5b61342d3387858973ffffffffffffffffffffffffffffffffffffffff16632f310bad6040518163ffffffff1660e01b815260040160206040518083038186803b1580156133cc57600080fd5b505afa1580156133e0573d6000803e3d6000fd5b505050506040513d60208110156133f657600080fd5b810190808051906020019092919050505073ffffffffffffffffffffffffffffffffffffffff1661353d909392919063ffffffff16565b61345a3387878973ffffffffffffffffffffffffffffffffffffffff1661353d909392919063ffffffff16565b8573ffffffffffffffffffffffffffffffffffffffff1663c74073a1856040518263ffffffff1660e01b8152600401808273ffffffffffffffffffffffffffffffffffffffff1673ffffffffffffffffffffffffffffffffffffffff168152602001915050606060405180830381600087803b1580156134d957600080fd5b505af11580156134ed573d6000803e3d6000fd5b505050506040513d606081101561350357600080fd5b8101908080519060200190929190805190602001909291908051906020019092919050505080935081945082955050505093509350939050565b613624846323b872dd60e01b858585604051602401808473ffffffffffffffffffffffffffffffffffffffff1673ffffffffffffffffffffffffffffffffffffffff1681526020018373ffffffffffffffffffffffffffffffffffffffff1673ffffffffffffffffffffffffffffffffffffffff1681526020018281526020019350505050604051602081830303815290604052907bffffffffffffffffffffffffffffffffffffffffffffffffffffffff19166020820180517bffffffffffffffffffffffffffffffffffffffffffffffffffffffff8381831617835250505050613deb565b50505050565b600061366c83836040518060400160405280601a81526020017f536166654d6174683a206469766973696f6e206279207a65726f000000000000815250613eda565b905092915050565b60008083141561368757600090506136f4565b600082840290508284828161369857fe5b04146136ef576040517f08c379a00000000000000000000000000000000000000000000000000000000081526004018080602001828103825260218152602001806142ce6021913960400191505060405180910390fd5b809150505b92915050565b6137ad8363a9059cbb60e01b8484604051602401808373ffffffffffffffffffffffffffffffffffffffff1673ffffffffffffffffffffffffffffffffffffffff16815260200182815260200192505050604051602081830303815290604052907bffffffffffffffffffffffffffffffffffffffffffffffffffffffff19166020820180517bffffffffffffffffffffffffffffffffffffffffffffffffffffffff8381831617835250505050613deb565b505050565b6000806000841161382b576040517f08c379a00000000000000000000000000000000000000000000000000000000081526004018080602001828103825260088152602001807f4552525f5a45524f00000000000000000000000000000000000000000000000081525060200191505060405180910390fd5b6138d83386868873ffffffffffffffffffffffffffffffffffffffff16632495a5996040518163ffffffff1660e01b815260040160206040518083038186803b15801561387757600080fd5b505afa15801561388b573d6000803e3d6000fd5b505050506040513d60208110156138a157600080fd5b810190808051906020019092919050505073ffffffffffffffffffffffffffffffffffffffff1661353d909392919063ffffffff16565b8473ffffffffffffffffffffffffffffffffffffffff16636a627842846040518263ffffffff1660e01b8152600401808273ffffffffffffffffffffffffffffffffffffffff1673ffffffffffffffffffffffffffffffffffffffff1681526020019150506040805180830381600087803b15801561395657600080fd5b505af115801561396a573d6000803e3d6000fd5b505050506040513d604081101561398057600080fd5b8101908080519060200190929190805190602001909291905050508092508193505050935093915050565b6060600080600160000160009054906101000a900473ffffffffffffffffffffffffffffffffffffffff16905060606002604051908082528060200260200182016040528015613a0a5781602001602082028038833980820191505090505b5090508681600081518110613a1b57fe5b602002602001019073ffffffffffffffffffffffffffffffffffffffff16908173ffffffffffffffffffffffffffffffffffffffff1681525050600560009054906101000a900473ffffffffffffffffffffffffffffffffffffffff1681600181518110613a8557fe5b602002602001019073ffffffffffffffffffffffffffffffffffffffff16908173ffffffffffffffffffffffffffffffffffffffff16815250508673ffffffffffffffffffffffffffffffffffffffff1663095ea7b3837fffffffffffffffffffffffffffffffffffffffffffffffffffffffffffffffff6040518363ffffffff1660e01b8152600401808373ffffffffffffffffffffffffffffffffffffffff1673ffffffffffffffffffffffffffffffffffffffff16815260200182815260200192505050602060405180830381600087803b158015613b6657600080fd5b505af1158015613b7a573d6000803e3d6000fd5b505050506040513d6020811015613b9057600080fd5b8101908080519060200190929190505050508173ffffffffffffffffffffffffffffffffffffffff166338ed17398787848c613bca61121a565b6040518663ffffffff1660e01b815260040180868152602001858152602001806020018473ffffffffffffffffffffffffffffffffffffffff1673ffffffffffffffffffffffffffffffffffffffff168152602001838152602001828103825285818151815260200191508051906020019060200280838360005b83811015613c60578082015181840152602081019050613c45565b505050509050019650505050505050600060405180830381600087803b158015613c8957600080fd5b505af1158015613c9d573d6000803e3d6000fd5b505050506040513d6000823e3d601f19601f820116820180604052506020811015613cc757600080fd5b8101908080516040519392919084640100000000821115613ce757600080fd5b83820191506020820185811115613cfd57600080fd5b8251866020820283011164010000000082111715613d1a57600080fd5b8083526020830192505050908051906020019060200280838360005b83811015613d51578082015181840152602081019050613d36565b5050505090500160405250505093508673ffffffffffffffffffffffffffffffffffffffff168873ffffffffffffffffffffffffffffffffffffffff163373ffffffffffffffffffffffffffffffffffffffff167f44257c08c012f14bcd84e62936b45f64afc3396efe1a7b1167d278c2d81ad99f896040518082815260200191505060405180910390a460019250505094509492505050565b6060613e4d826040518060400160405280602081526020017f5361666545524332303a206c6f772d6c6576656c2063616c6c206661696c65648152508573ffffffffffffffffffffffffffffffffffffffff16613fa09092919063ffffffff16565b9050600081511115613ed557808060200190516020811015613e6e57600080fd5b8101908080519060200190929190505050613ed4576040517f08c379a000000000000000000000000000000000000000000000000000000000815260040180806020018281038252602a8152602001806142ef602a913960400191505060405180910390fd5b5b505050565b60008083118290613f86576040517f08c379a00000000000000000000000000000000000000000000000000000000081526004018080602001828103825283818151815260200191508051906020019080838360005b83811015613f4b578082015181840152602081019050613f30565b50505050905090810190601f168015613f785780820380516001836020036101000a031916815260200191505b509250505060405180910390fd5b506000838581613f9257fe5b049050809150509392505050565b6060613faf8484600085613fb8565b90509392505050565b6060613fc3856141be565b614035576040517f08c379a000000000000000000000000000000000000000000000000000000000815260040180806020018281038252601d8152602001807f416464726573733a2063616c6c20746f206e6f6e2d636f6e747261637400000081525060200191505060405180910390fd5b600060608673ffffffffffffffffffffffffffffffffffffffff1685876040518082805190602001908083835b602083106140855780518252602082019150602081019050602083039250614062565b6001836020036101000a03801982511681845116808217855250505050505090500191505060006040518083038185875af1925050503d80600081146140e7576040519150601f19603f3d011682016040523d82523d6000602084013e6140ec565b606091505b509150915081156141015780925050506141b6565b6000815111156141145780518082602001fd5b836040517f08c379a00000000000000000000000000000000000000000000000000000000081526004018080602001828103825283818151815260200191508051906020019080838360005b8381101561417b578082015181840152602081019050614160565b50505050905090810190601f1680156141a85780820380516001836020036101000a031916815260200191505b509250505060405180910390fd5b949350505050565b60008060007fc5d2460186f7233c927e7db2dcc703c0e500b653ca82273b7bfad8045d85a47060001b9050833f915080821415801561420057506000801b8214155b92505050919050565b6040518060600160405280600073ffffffffffffffffffffffffffffffffffffffff168152602001600073ffffffffffffffffffffffffffffffffffffffff1681526020016000151581525090565b6040518060600160405280600073ffffffffffffffffffffffffffffffffffffffff168152602001600073ffffffffffffffffffffffffffffffffffffffff168152602001600015158152509056fe4f776e61626c653a206e6577206f776e657220697320746865207a65726f2061646472657373536166654d6174683a206d756c7469706c69636174696f6e206f766572666c6f775361666545524332303a204552433230206f7065726174696f6e20646964206e6f742073756363656564a264697066735822122064ba0d508c2418dbb490cbc8702a08940574c5113bd01f2c3d048936830e5c0864736f6c63430006020033",
  "devdoc": {
    "methods": {
      "addLiquidityWithOptions(address,uint256,uint256,uint256,uint256,address)": {
        "details": "Adds liquidity to an option<>quote token pair. Takes a deposit in quote tokens. Takes a deposit in option tokens."
      },
      "addLiquidityWithUnderlying(address,uint256,uint256,uint256,uint256,address)": {
        "details": "Adds liquidity to an option<>quote token pair. Takes a deposit in quote tokens. Takes a deposit in underlying tokens, which are used to mint new option tokens to add liquidity with."
      },
      "deployUniswapMarket(address)": {
        "details": "Creats a Uniswap pair for option<>quote tokens."
      },
      "getMaxDeadline()": {
        "details": "The maxmium deadline available for each trade."
      },
      "getUniswapMarketForOption(address)": {
        "details": "Gets a Uniswap Pair address for an option token and quote token."
      },
      "getUniswapMarketForSeries(address,address,uint256,uint256,uint256)": {
        "details": "Gets a Uniswap Pair address for the corresponding option parameters."
      },
      "mintAndMarketSell(address,uint256,uint256)": {
        "details": "Mints options using underlyingTokens provided by user, then sells on uniswap."
      },
      "owner()": {
        "details": "Returns the address of the current owner."
      },
      "renounceOwnership()": {
        "details": "Leaves the contract without owner. It will not be possible to call `onlyOwner` functions anymore. Can only be called by the current owner.     * NOTE: Renouncing ownership will leave the contract without an owner, thereby removing any functionality that is only available to the owner."
      },
      "rollOptionForExpiry(address,address,address,uint256)": {
        "details": "Closes a shorter dated option and mints a longer dated option."
      },
      "rollOptionLiquidityForExpiry(address,address,address,uint256)": {
        "details": "Rolls liquidity in an option series to an option series with a further expiry date."
      },
      "setPrimitiveProtocol(address,address,bool)": {
        "details": "Sets the state for the Primitive protocol's contracts."
      },
      "setQuoteToken(address)": {
        "details": "The stablecoin \"cash\" token."
      },
      "setUniswapProtocol(address,address,bool)": {
        "details": "Sets the state for the Uniswap protocol's contracts."
      },
      "transferOwnership(address)": {
        "details": "Transfers ownership of the contract to a new account (`newOwner`). Can only be called by the current owner."
      }
    }
  },
  "userdoc": {
    "methods": {
      "rollOptionForExpiry(address,address,address,uint256)": {
        "notice": "Pulls option and redeem tokens from msg.sender"
      },
      "rollOptionLiquidityForExpiry(address,address,address,uint256)": {
        "notice": "Pulls UNI-V2 liquidity shares from msg.sender."
      }
    }
  },
  "storageLayout": {
    "storage": [
      {
        "astId": 29,
        "contract": "contracts/connectors/uniswap/UniswapConnector.sol:UniswapConnector",
        "label": "_owner",
        "offset": 0,
        "slot": "0",
        "type": "t_address"
      },
      {
        "astId": 2018,
        "contract": "contracts/connectors/uniswap/UniswapConnector.sol:UniswapConnector",
        "label": "_uniswap",
        "offset": 0,
        "slot": "1",
        "type": "t_struct(UniswapProtocol)2009_storage"
      },
      {
        "astId": 2020,
        "contract": "contracts/connectors/uniswap/UniswapConnector.sol:UniswapConnector",
        "label": "_primitive",
        "offset": 0,
        "slot": "3",
        "type": "t_struct(PrimitiveProtocol)2016_storage"
      },
      {
        "astId": 2022,
        "contract": "contracts/connectors/uniswap/UniswapConnector.sol:UniswapConnector",
        "label": "quoteToken",
        "offset": 0,
        "slot": "5",
        "type": "t_address"
      }
    ],
    "types": {
      "t_address": {
        "encoding": "inplace",
        "label": "address",
        "numberOfBytes": "20"
      },
      "t_bool": {
        "encoding": "inplace",
        "label": "bool",
        "numberOfBytes": "1"
      },
      "t_contract(IRegistry)4541": {
        "encoding": "inplace",
        "label": "contract IRegistry",
        "numberOfBytes": "20"
      },
      "t_contract(ITrader)4613": {
        "encoding": "inplace",
        "label": "contract ITrader",
        "numberOfBytes": "20"
      },
      "t_contract(IUniswapV2Factory)1562": {
        "encoding": "inplace",
        "label": "contract IUniswapV2Factory",
        "numberOfBytes": "20"
      },
      "t_contract(IUniswapV2Router02)1958": {
        "encoding": "inplace",
        "label": "contract IUniswapV2Router02",
        "numberOfBytes": "20"
      },
      "t_struct(PrimitiveProtocol)2016_storage": {
        "encoding": "inplace",
        "label": "struct UniswapConnector.PrimitiveProtocol",
        "members": [
          {
            "astId": 2011,
            "contract": "contracts/connectors/uniswap/UniswapConnector.sol:UniswapConnector",
            "label": "trader",
            "offset": 0,
            "slot": "0",
            "type": "t_contract(ITrader)4613"
          },
          {
            "astId": 2013,
            "contract": "contracts/connectors/uniswap/UniswapConnector.sol:UniswapConnector",
            "label": "registry",
            "offset": 0,
            "slot": "1",
            "type": "t_contract(IRegistry)4541"
          },
          {
            "astId": 2015,
            "contract": "contracts/connectors/uniswap/UniswapConnector.sol:UniswapConnector",
            "label": "isActivelyTrading",
            "offset": 20,
            "slot": "1",
            "type": "t_bool"
          }
        ],
        "numberOfBytes": "64"
      },
      "t_struct(UniswapProtocol)2009_storage": {
        "encoding": "inplace",
        "label": "struct UniswapConnector.UniswapProtocol",
        "members": [
          {
            "astId": 2004,
            "contract": "contracts/connectors/uniswap/UniswapConnector.sol:UniswapConnector",
            "label": "router",
            "offset": 0,
            "slot": "0",
            "type": "t_contract(IUniswapV2Router02)1958"
          },
          {
            "astId": 2006,
            "contract": "contracts/connectors/uniswap/UniswapConnector.sol:UniswapConnector",
            "label": "factory",
            "offset": 0,
            "slot": "1",
            "type": "t_contract(IUniswapV2Factory)1562"
          },
          {
            "astId": 2008,
            "contract": "contracts/connectors/uniswap/UniswapConnector.sol:UniswapConnector",
            "label": "isActivelyTrading",
            "offset": 20,
            "slot": "1",
            "type": "t_bool"
          }
        ],
        "numberOfBytes": "64"
      }
    }
  },
  "contractFilepath": "contracts/connectors/uniswap/UniswapConnector.sol",
  "contractName": "UniswapConnector",
  "gasEstimates": {
    "creation": {
      "codeDepositCost": "3446000",
      "executionCost": "infinite",
      "totalCost": "infinite"
    },
    "external": {
      "addLiquidityWithOptions(address,uint256,uint256,uint256,uint256,address)": "infinite",
      "addLiquidityWithUnderlying(address,uint256,uint256,uint256,uint256,address)": "infinite",
      "deployUniswapMarket(address)": "infinite",
      "getMaxDeadline()": "285",
      "getPrimitiveProtocolAddresses()": "3208",
      "getUniswapMarketForOption(address)": "infinite",
      "getUniswapMarketForSeries(address,address,uint256,uint256,uint256)": "infinite",
      "getUniswapProtocolAddresses()": "3186",
      "mintAndMarketSell(address,uint256,uint256)": "infinite",
      "owner()": "1128",
      "quoteToken()": "1099",
      "renounceOwnership()": "24342",
      "rollOptionForExpiry(address,address,address,uint256)": "infinite",
      "rollOptionLiquidityForExpiry(address,address,address,uint256)": "infinite",
      "setPrimitiveProtocol(address,address,bool)": "66144",
      "setQuoteToken(address)": "23574",
      "setUniswapProtocol(address,address,bool)": "66189",
      "transferOwnership(address)": "infinite"
    },
    "internal": {
      "marketSell(address,address,uint256,uint256)": "infinite"
    }
  }
}